{
  "_format": "hh-sol-artifact-1",
  "contractName": "Projects",
  "sourceName": "contracts/Projects.sol",
  "abi": [
    {
      "inputs": [],
      "stateMutability": "nonpayable",
      "type": "constructor"
    },
    {
      "inputs": [],
      "name": "OnlyOwner",
      "type": "error"
    },
    {
      "inputs": [
        {
          "internalType": "string",
          "name": "_image",
          "type": "string"
        },
        {
          "internalType": "string",
          "name": "_title",
          "type": "string"
        },
        {
          "internalType": "string",
          "name": "_about",
          "type": "string"
        },
        {
          "internalType": "string[]",
          "name": "_keywords",
          "type": "string[]"
        },
        {
          "internalType": "string",
          "name": "_github",
          "type": "string"
        },
        {
          "internalType": "string",
          "name": "_website",
          "type": "string"
        }
      ],
      "name": "addProject",
      "outputs": [],
      "stateMutability": "nonpayable",
      "type": "function"
    },
    {
      "inputs": [],
      "name": "getAllProjects",
      "outputs": [
        {
          "components": [
            {
              "internalType": "uint8",
              "name": "id",
              "type": "uint8"
            },
            {
              "internalType": "string",
              "name": "image",
              "type": "string"
            },
            {
              "internalType": "string",
              "name": "title",
              "type": "string"
            },
            {
              "internalType": "string",
              "name": "about",
              "type": "string"
            },
            {
              "internalType": "string[]",
              "name": "keywords",
              "type": "string[]"
            },
            {
              "internalType": "string",
              "name": "github",
              "type": "string"
            },
            {
              "internalType": "string",
              "name": "website",
              "type": "string"
            }
          ],
          "internalType": "struct Projects.Project[]",
          "name": "",
          "type": "tuple[]"
        }
      ],
      "stateMutability": "view",
      "type": "function"
    },
    {
      "inputs": [
        {
          "internalType": "uint8",
          "name": "_index",
          "type": "uint8"
        }
      ],
      "name": "removeProject",
      "outputs": [],
      "stateMutability": "nonpayable",
      "type": "function"
    }
  ],
  "bytecode": "0x608060405234801561001057600080fd5b50336001806101000a81548173ffffffffffffffffffffffffffffffffffffffff021916908373ffffffffffffffffffffffffffffffffffffffff160217905550611668806100606000396000f3fe608060405234801561001057600080fd5b50600436106100415760003560e01c806380d03829146100465780638e033eaa14610064578063ea3c892a14610080575b600080fd5b61004e61009c565b60405161005b9190610d4e565b60405180910390f35b61007e60048036038101906100799190610f9f565b6104cb565b005b61009a60048036038101906100959190611100565b6106a3565b005b60606000805480602002602001604051908101604052809291908181526020016000905b828210156104c257838290600052602060002090600702016040518060e00160405290816000820160009054906101000a900460ff1660ff1660ff1681526020016001820180546101109061115c565b80601f016020809104026020016040519081016040528092919081815260200182805461013c9061115c565b80156101895780601f1061015e57610100808354040283529160200191610189565b820191906000526020600020905b81548152906001019060200180831161016c57829003601f168201915b505050505081526020016002820180546101a29061115c565b80601f01602080910402602001604051908101604052809291908181526020018280546101ce9061115c565b801561021b5780601f106101f05761010080835404028352916020019161021b565b820191906000526020600020905b8154815290600101906020018083116101fe57829003601f168201915b505050505081526020016003820180546102349061115c565b80601f01602080910402602001604051908101604052809291908181526020018280546102609061115c565b80156102ad5780601f10610282576101008083540402835291602001916102ad565b820191906000526020600020905b81548152906001019060200180831161029057829003601f168201915b5050505050815260200160048201805480602002602001604051908101604052809291908181526020016000905b828210156103875783829060005260206000200180546102fa9061115c565b80601f01602080910402602001604051908101604052809291908181526020018280546103269061115c565b80156103735780601f1061034857610100808354040283529160200191610373565b820191906000526020600020905b81548152906001019060200180831161035657829003601f168201915b5050505050815260200190600101906102db565b50505050815260200160058201805461039f9061115c565b80601f01602080910402602001604051908101604052809291908181526020018280546103cb9061115c565b80156104185780601f106103ed57610100808354040283529160200191610418565b820191906000526020600020905b8154815290600101906020018083116103fb57829003601f168201915b505050505081526020016006820180546104319061115c565b80601f016020809104026020016040519081016040528092919081815260200182805461045d9061115c565b80156104aa5780601f1061047f576101008083540402835291602001916104aa565b820191906000526020600020905b81548152906001019060200180831161048d57829003601f168201915b505050505081525050815260200190600101906100c0565b50505050905090565b60018054906101000a900473ffffffffffffffffffffffffffffffffffffffff1673ffffffffffffffffffffffffffffffffffffffff163373ffffffffffffffffffffffffffffffffffffffff1614610550576040517f5fc483c500000000000000000000000000000000000000000000000000000000815260040160405180910390fd5b60006001600081819054906101000a900460ff1680929190610571906111bc565b91906101000a81548160ff021916908360ff160217905550905060006040518060e001604052808360ff16815260200189815260200188815260200187815260200186815260200185815260200184815250908060018154018082558091505060019003906000526020600020906007020160009091909190915060008201518160000160006101000a81548160ff021916908360ff1602179055506020820151816001019081610622919061139b565b506040820151816002019081610638919061139b565b50606082015181600301908161064e919061139b565b50608082015181600401908051906020019061066b929190610907565b5060a0820151816005019081610681919061139b565b5060c0820151816006019081610697919061139b565b50505050505050505050565b60018054906101000a900473ffffffffffffffffffffffffffffffffffffffff1673ffffffffffffffffffffffffffffffffffffffff163373ffffffffffffffffffffffffffffffffffffffff1614610728576040517f5fc483c500000000000000000000000000000000000000000000000000000000815260040160405180910390fd5b60008190505b6001600080549050610740919061146d565b8160ff16101561086457600060018261075991906114a1565b60ff168154811061076d5761076c6114d6565b5b906000526020600020906007020160008260ff1681548110610792576107916114d6565b5b90600052602060002090600702016000820160009054906101000a900460ff168160000160006101000a81548160ff021916908360ff160217905550600182018160010190816107e2919061151b565b50600282018160020190816107f7919061151b565b506003820181600301908161080c919061151b565b506004820181600401908054610823929190610960565b5060058201816005019081610838919061151b565b506006820181600601908161084d919061151b565b50905050808061085c906111bc565b91505061072e565b50600080548061087757610876611603565b5b6001900381819060005260206000209060070201600080820160006101000a81549060ff02191690556001820160006108b091906109bd565b6002820160006108c091906109bd565b6003820160006108d091906109bd565b6004820160006108e091906109fd565b6005820160006108f091906109bd565b60068201600061090091906109bd565b5050905550565b82805482825590600052602060002090810192821561094f579160200282015b8281111561094e57825182908161093e919061139b565b5091602001919060010190610927565b5b50905061095c9190610a1e565b5090565b8280548282559060005260206000209081019282156109ac5760005260206000209182015b828111156109ab578282908161099b919061151b565b5091600101919060010190610985565b5b5090506109b99190610a1e565b5090565b5080546109c99061115c565b6000825580601f106109db57506109fa565b601f0160209004906000526020600020908101906109f99190610a42565b5b50565b5080546000825590600052602060002090810190610a1b9190610a1e565b50565b5b80821115610a3e5760008181610a3591906109bd565b50600101610a1f565b5090565b5b80821115610a5b576000816000905550600101610a43565b5090565b600081519050919050565b600082825260208201905092915050565b6000819050602082019050919050565b600060ff82169050919050565b610aa181610a8b565b82525050565b600081519050919050565b600082825260208201905092915050565b60005b83811015610ae1578082015181840152602081019050610ac6565b60008484015250505050565b6000601f19601f8301169050919050565b6000610b0982610aa7565b610b138185610ab2565b9350610b23818560208601610ac3565b610b2c81610aed565b840191505092915050565b600081519050919050565b600082825260208201905092915050565b6000819050602082019050919050565b6000610b6f8383610afe565b905092915050565b6000602082019050919050565b6000610b8f82610b37565b610b998185610b42565b935083602082028501610bab85610b53565b8060005b85811015610be75784840389528151610bc88582610b63565b9450610bd383610b77565b925060208a01995050600181019050610baf565b50829750879550505050505092915050565b600060e083016000830151610c116000860182610a98565b5060208301518482036020860152610c298282610afe565b91505060408301518482036040860152610c438282610afe565b91505060608301518482036060860152610c5d8282610afe565b91505060808301518482036080860152610c778282610b84565b91505060a083015184820360a0860152610c918282610afe565b91505060c083015184820360c0860152610cab8282610afe565b9150508091505092915050565b6000610cc48383610bf9565b905092915050565b6000602082019050919050565b6000610ce482610a5f565b610cee8185610a6a565b935083602082028501610d0085610a7b565b8060005b85811015610d3c5784840389528151610d1d8582610cb8565b9450610d2883610ccc565b925060208a01995050600181019050610d04565b50829750879550505050505092915050565b60006020820190508181036000830152610d688184610cd9565b905092915050565b6000604051905090565b600080fd5b600080fd5b600080fd5b600080fd5b7f4e487b7100000000000000000000000000000000000000000000000000000000600052604160045260246000fd5b610dc682610aed565b810181811067ffffffffffffffff82111715610de557610de4610d8e565b5b80604052505050565b6000610df8610d70565b9050610e048282610dbd565b919050565b600067ffffffffffffffff821115610e2457610e23610d8e565b5b610e2d82610aed565b9050602081019050919050565b82818337600083830152505050565b6000610e5c610e5784610e09565b610dee565b905082815260208101848484011115610e7857610e77610d89565b5b610e83848285610e3a565b509392505050565b600082601f830112610ea057610e9f610d84565b5b8135610eb0848260208601610e49565b91505092915050565b600067ffffffffffffffff821115610ed457610ed3610d8e565b5b602082029050602081019050919050565b600080fd5b6000610efd610ef884610eb9565b610dee565b90508083825260208201905060208402830185811115610f2057610f1f610ee5565b5b835b81811015610f6757803567ffffffffffffffff811115610f4557610f44610d84565b5b808601610f528982610e8b565b85526020850194505050602081019050610f22565b5050509392505050565b600082601f830112610f8657610f85610d84565b5b8135610f96848260208601610eea565b91505092915050565b60008060008060008060c08789031215610fbc57610fbb610d7a565b5b600087013567ffffffffffffffff811115610fda57610fd9610d7f565b5b610fe689828a01610e8b565b965050602087013567ffffffffffffffff81111561100757611006610d7f565b5b61101389828a01610e8b565b955050604087013567ffffffffffffffff81111561103457611033610d7f565b5b61104089828a01610e8b565b945050606087013567ffffffffffffffff81111561106157611060610d7f565b5b61106d89828a01610f71565b935050608087013567ffffffffffffffff81111561108e5761108d610d7f565b5b61109a89828a01610e8b565b92505060a087013567ffffffffffffffff8111156110bb576110ba610d7f565b5b6110c789828a01610e8b565b9150509295509295509295565b6110dd81610a8b565b81146110e857600080fd5b50565b6000813590506110fa816110d4565b92915050565b60006020828403121561111657611115610d7a565b5b6000611124848285016110eb565b91505092915050565b7f4e487b7100000000000000000000000000000000000000000000000000000000600052602260045260246000fd5b6000600282049050600182168061117457607f821691505b6020821081036111875761118661112d565b5b50919050565b7f4e487b7100000000000000000000000000000000000000000000000000000000600052601160045260246000fd5b60006111c782610a8b565b915060ff82036111da576111d961118d565b5b600182019050919050565b60008190508160005260206000209050919050565b60006020601f8301049050919050565b600082821b905092915050565b6000600883026112477fffffffffffffffffffffffffffffffffffffffffffffffffffffffffffffffff8261120a565b611251868361120a565b95508019841693508086168417925050509392505050565b6000819050919050565b6000819050919050565b600061129861129361128e84611269565b611273565b611269565b9050919050565b6000819050919050565b6112b28361127d565b6112c66112be8261129f565b848454611217565b825550505050565b600090565b6112db6112ce565b6112e68184846112a9565b505050565b5b8181101561130a576112ff6000826112d3565b6001810190506112ec565b5050565b601f82111561134f57611320816111e5565b611329846111fa565b81016020851015611338578190505b61134c611344856111fa565b8301826112eb565b50505b505050565b600082821c905092915050565b600061137260001984600802611354565b1980831691505092915050565b600061138b8383611361565b9150826002028217905092915050565b6113a482610aa7565b67ffffffffffffffff8111156113bd576113bc610d8e565b5b6113c7825461115c565b6113d282828561130e565b600060209050601f83116001811461140557600084156113f3578287015190505b6113fd858261137f565b865550611465565b601f198416611413866111e5565b60005b8281101561143b57848901518255600182019150602085019450602081019050611416565b868310156114585784890151611454601f891682611361565b8355505b6001600288020188555050505b505050505050565b600061147882611269565b915061148383611269565b925082820390508181111561149b5761149a61118d565b5b92915050565b60006114ac82610a8b565b91506114b783610a8b565b9250828201905060ff8111156114d0576114cf61118d565b5b92915050565b7f4e487b7100000000000000000000000000000000000000000000000000000000600052603260045260246000fd5b6000815490506115148161115c565b9050919050565b818103611529575050611601565b61153282611505565b67ffffffffffffffff81111561154b5761154a610d8e565b5b611555825461115c565b61156082828561130e565b6000601f83116001811461158f576000841561157d578287015490505b611587858261137f565b8655506115fa565b601f19841661159d876111e5565b96506115a8866111e5565b60005b828110156115d0578489015482556001820191506001850194506020810190506115ab565b868310156115ed57848901546115e9601f891682611361565b8355505b6001600288020188555050505b5050505050505b565b7f4e487b7100000000000000000000000000000000000000000000000000000000600052603160045260246000fdfea2646970667358221220bc94d2922260677d9ece3ef85c1297424b502c2cfef9a451379d8a16f1b2dcc764736f6c63430008110033",
  "linkReferences": {},
  "deployedLinkReferences": {}
}