{
  "_format": "hh-sol-artifact-1",
  "contractName": "Projects",
  "sourceName": "contracts/Projects.sol",
  "abi": [
    {
      "inputs": [],
      "stateMutability": "nonpayable",
      "type": "constructor"
    },
    {
      "inputs": [],
      "name": "OnlyOwner",
      "type": "error"
    },
    {
      "inputs": [
        {
          "internalType": "string",
          "name": "_image",
          "type": "string"
        },
        {
          "internalType": "string",
          "name": "_title",
          "type": "string"
        },
        {
          "internalType": "string",
          "name": "_about",
          "type": "string"
        },
        {
          "internalType": "string[]",
          "name": "_keywords",
          "type": "string[]"
        },
        {
          "internalType": "string",
          "name": "_github",
          "type": "string"
        },
        {
          "internalType": "string",
          "name": "_website",
          "type": "string"
        }
      ],
      "name": "addProject",
      "outputs": [],
      "stateMutability": "nonpayable",
      "type": "function"
    },
    {
      "inputs": [],
      "name": "getAllProjects",
      "outputs": [
        {
          "components": [
            {
              "internalType": "uint256",
              "name": "id",
              "type": "uint256"
            },
            {
              "internalType": "address",
              "name": "owner",
              "type": "address"
            },
            {
              "internalType": "string",
              "name": "image",
              "type": "string"
            },
            {
              "internalType": "string",
              "name": "title",
              "type": "string"
            },
            {
              "internalType": "string",
              "name": "about",
              "type": "string"
            },
            {
              "internalType": "string[]",
              "name": "keywords",
              "type": "string[]"
            },
            {
              "internalType": "string",
              "name": "github",
              "type": "string"
            },
            {
              "internalType": "string",
              "name": "website",
              "type": "string"
            }
          ],
          "internalType": "struct Projects.Project[]",
          "name": "",
          "type": "tuple[]"
        }
      ],
      "stateMutability": "view",
      "type": "function"
    },
    {
      "inputs": [
        {
          "internalType": "uint256",
          "name": "_index",
          "type": "uint256"
        }
      ],
      "name": "removeProject",
      "outputs": [],
      "stateMutability": "nonpayable",
      "type": "function"
    },
    {
      "inputs": [],
      "name": "selfDestruct",
      "outputs": [],
      "stateMutability": "nonpayable",
      "type": "function"
    }
  ],
  "bytecode": "0x608060405234801561001057600080fd5b5033600260006101000a81548173ffffffffffffffffffffffffffffffffffffffff021916908373ffffffffffffffffffffffffffffffffffffffff16021790555061186c806100616000396000f3fe608060405234801561001057600080fd5b506004361061004c5760003560e01c80635873f9981461005157806380d038291461006d5780638e033eaa1461008b5780639cb8a26a146100a7575b600080fd5b61006b60048036038101906100669190610c47565b6100b1565b005b61007561036c565b6040516100829190610fab565b60405180910390f35b6100a560048036038101906100a091906111e8565b6107df565b005b6100af6109e3565b005b600260009054906101000a900473ffffffffffffffffffffffffffffffffffffffff1673ffffffffffffffffffffffffffffffffffffffff163373ffffffffffffffffffffffffffffffffffffffff1614610138576040517f5fc483c500000000000000000000000000000000000000000000000000000000815260040160405180910390fd5b60008190505b6001600080549050610150919061134c565b8110156102ae5760006001826101669190611380565b81548110610177576101766113b4565b5b906000526020600020906008020160008281548110610199576101986113b4565b5b9060005260206000209060080201600082015481600001556001820160009054906101000a900473ffffffffffffffffffffffffffffffffffffffff168160010160006101000a81548173ffffffffffffffffffffffffffffffffffffffff021916908373ffffffffffffffffffffffffffffffffffffffff1602179055506002820181600201908161022c9190611605565b50600382018160030190816102419190611605565b50600482018160040190816102569190611605565b50600582018160050190805461026d929190610aa5565b50600682018160060190816102829190611605565b50600782018160070190816102979190611605565b5090505080806102a6906116ed565b91505061013e565b5060008054806102c1576102c0611735565b5b60019003818190600052602060002090600802016000808201600090556001820160006101000a81549073ffffffffffffffffffffffffffffffffffffffff02191690556002820160006103159190610b02565b6003820160006103259190610b02565b6004820160006103359190610b02565b6005820160006103459190610b42565b6006820160006103559190610b02565b6007820160006103659190610b02565b5050905550565b60606000805480602002602001604051908101604052809291908181526020016000905b828210156107d6578382906000526020600020906008020160405180610100016040529081600082015481526020016001820160009054906101000a900473ffffffffffffffffffffffffffffffffffffffff1673ffffffffffffffffffffffffffffffffffffffff1673ffffffffffffffffffffffffffffffffffffffff16815260200160028201805461042490611412565b80601f016020809104026020016040519081016040528092919081815260200182805461045090611412565b801561049d5780601f106104725761010080835404028352916020019161049d565b820191906000526020600020905b81548152906001019060200180831161048057829003601f168201915b505050505081526020016003820180546104b690611412565b80601f01602080910402602001604051908101604052809291908181526020018280546104e290611412565b801561052f5780601f106105045761010080835404028352916020019161052f565b820191906000526020600020905b81548152906001019060200180831161051257829003601f168201915b5050505050815260200160048201805461054890611412565b80601f016020809104026020016040519081016040528092919081815260200182805461057490611412565b80156105c15780601f10610596576101008083540402835291602001916105c1565b820191906000526020600020905b8154815290600101906020018083116105a457829003601f168201915b5050505050815260200160058201805480602002602001604051908101604052809291908181526020016000905b8282101561069b57838290600052602060002001805461060e90611412565b80601f016020809104026020016040519081016040528092919081815260200182805461063a90611412565b80156106875780601f1061065c57610100808354040283529160200191610687565b820191906000526020600020905b81548152906001019060200180831161066a57829003601f168201915b5050505050815260200190600101906105ef565b5050505081526020016006820180546106b390611412565b80601f01602080910402602001604051908101604052809291908181526020018280546106df90611412565b801561072c5780601f106107015761010080835404028352916020019161072c565b820191906000526020600020905b81548152906001019060200180831161070f57829003601f168201915b5050505050815260200160078201805461074590611412565b80601f016020809104026020016040519081016040528092919081815260200182805461077190611412565b80156107be5780601f10610793576101008083540402835291602001916107be565b820191906000526020600020905b8154815290600101906020018083116107a157829003601f168201915b50505050508152505081526020019060010190610390565b50505050905090565b600260009054906101000a900473ffffffffffffffffffffffffffffffffffffffff1673ffffffffffffffffffffffffffffffffffffffff163373ffffffffffffffffffffffffffffffffffffffff1614610866576040517f5fc483c500000000000000000000000000000000000000000000000000000000815260040160405180910390fd5b60006001600081548092919061087b906116ed565b91905055905060006040518061010001604052808381526020013373ffffffffffffffffffffffffffffffffffffffff1681526020018981526020018881526020018781526020018681526020018581526020018481525090806001815401808255809150506001900390600052602060002090600802016000909190919091506000820151816000015560208201518160010160006101000a81548173ffffffffffffffffffffffffffffffffffffffff021916908373ffffffffffffffffffffffffffffffffffffffff16021790555060408201518160020190816109629190611764565b5060608201518160030190816109789190611764565b50608082015181600401908161098e9190611764565b5060a08201518160050190805190602001906109ab929190610b63565b5060c08201518160060190816109c19190611764565b5060e08201518160070190816109d79190611764565b50505050505050505050565b600260009054906101000a900473ffffffffffffffffffffffffffffffffffffffff1673ffffffffffffffffffffffffffffffffffffffff163373ffffffffffffffffffffffffffffffffffffffff1614610a6a576040517f5fc483c500000000000000000000000000000000000000000000000000000000815260040160405180910390fd5b600260009054906101000a900473ffffffffffffffffffffffffffffffffffffffff1673ffffffffffffffffffffffffffffffffffffffff16ff5b828054828255906000526020600020908101928215610af15760005260206000209182015b82811115610af05782829081610ae09190611605565b5091600101919060010190610aca565b5b509050610afe9190610bbc565b5090565b508054610b0e90611412565b6000825580601f10610b205750610b3f565b601f016020900490600052602060002090810190610b3e9190610be0565b5b50565b5080546000825590600052602060002090810190610b609190610bbc565b50565b828054828255906000526020600020908101928215610bab579160200282015b82811115610baa578251829081610b9a9190611764565b5091602001919060010190610b83565b5b509050610bb89190610bbc565b5090565b5b80821115610bdc5760008181610bd39190610b02565b50600101610bbd565b5090565b5b80821115610bf9576000816000905550600101610be1565b5090565b6000604051905090565b600080fd5b600080fd5b6000819050919050565b610c2481610c11565b8114610c2f57600080fd5b50565b600081359050610c4181610c1b565b92915050565b600060208284031215610c5d57610c5c610c07565b5b6000610c6b84828501610c32565b91505092915050565b600081519050919050565b600082825260208201905092915050565b6000819050602082019050919050565b610ca981610c11565b82525050565b600073ffffffffffffffffffffffffffffffffffffffff82169050919050565b6000610cda82610caf565b9050919050565b610cea81610ccf565b82525050565b600081519050919050565b600082825260208201905092915050565b60005b83811015610d2a578082015181840152602081019050610d0f565b60008484015250505050565b6000601f19601f8301169050919050565b6000610d5282610cf0565b610d5c8185610cfb565b9350610d6c818560208601610d0c565b610d7581610d36565b840191505092915050565b600081519050919050565b600082825260208201905092915050565b6000819050602082019050919050565b6000610db88383610d47565b905092915050565b6000602082019050919050565b6000610dd882610d80565b610de28185610d8b565b935083602082028501610df485610d9c565b8060005b85811015610e305784840389528151610e118582610dac565b9450610e1c83610dc0565b925060208a01995050600181019050610df8565b50829750879550505050505092915050565b600061010083016000830151610e5b6000860182610ca0565b506020830151610e6e6020860182610ce1565b5060408301518482036040860152610e868282610d47565b91505060608301518482036060860152610ea08282610d47565b91505060808301518482036080860152610eba8282610d47565b91505060a083015184820360a0860152610ed48282610dcd565b91505060c083015184820360c0860152610eee8282610d47565b91505060e083015184820360e0860152610f088282610d47565b9150508091505092915050565b6000610f218383610e42565b905092915050565b6000602082019050919050565b6000610f4182610c74565b610f4b8185610c7f565b935083602082028501610f5d85610c90565b8060005b85811015610f995784840389528151610f7a8582610f15565b9450610f8583610f29565b925060208a01995050600181019050610f61565b50829750879550505050505092915050565b60006020820190508181036000830152610fc58184610f36565b905092915050565b600080fd5b600080fd5b7f4e487b7100000000000000000000000000000000000000000000000000000000600052604160045260246000fd5b61100f82610d36565b810181811067ffffffffffffffff8211171561102e5761102d610fd7565b5b80604052505050565b6000611041610bfd565b905061104d8282611006565b919050565b600067ffffffffffffffff82111561106d5761106c610fd7565b5b61107682610d36565b9050602081019050919050565b82818337600083830152505050565b60006110a56110a084611052565b611037565b9050828152602081018484840111156110c1576110c0610fd2565b5b6110cc848285611083565b509392505050565b600082601f8301126110e9576110e8610fcd565b5b81356110f9848260208601611092565b91505092915050565b600067ffffffffffffffff82111561111d5761111c610fd7565b5b602082029050602081019050919050565b600080fd5b600061114661114184611102565b611037565b905080838252602082019050602084028301858111156111695761116861112e565b5b835b818110156111b057803567ffffffffffffffff81111561118e5761118d610fcd565b5b80860161119b89826110d4565b8552602085019450505060208101905061116b565b5050509392505050565b600082601f8301126111cf576111ce610fcd565b5b81356111df848260208601611133565b91505092915050565b60008060008060008060c0878903121561120557611204610c07565b5b600087013567ffffffffffffffff81111561122357611222610c0c565b5b61122f89828a016110d4565b965050602087013567ffffffffffffffff8111156112505761124f610c0c565b5b61125c89828a016110d4565b955050604087013567ffffffffffffffff81111561127d5761127c610c0c565b5b61128989828a016110d4565b945050606087013567ffffffffffffffff8111156112aa576112a9610c0c565b5b6112b689828a016111ba565b935050608087013567ffffffffffffffff8111156112d7576112d6610c0c565b5b6112e389828a016110d4565b92505060a087013567ffffffffffffffff81111561130457611303610c0c565b5b61131089828a016110d4565b9150509295509295509295565b7f4e487b7100000000000000000000000000000000000000000000000000000000600052601160045260246000fd5b600061135782610c11565b915061136283610c11565b925082820390508181111561137a5761137961131d565b5b92915050565b600061138b82610c11565b915061139683610c11565b92508282019050808211156113ae576113ad61131d565b5b92915050565b7f4e487b7100000000000000000000000000000000000000000000000000000000600052603260045260246000fd5b7f4e487b7100000000000000000000000000000000000000000000000000000000600052602260045260246000fd5b6000600282049050600182168061142a57607f821691505b60208210810361143d5761143c6113e3565b5b50919050565b60008154905061145281611412565b9050919050565b60008190508160005260206000209050919050565b60006020601f8301049050919050565b600082821b905092915050565b6000600883026114bb7fffffffffffffffffffffffffffffffffffffffffffffffffffffffffffffffff8261147e565b6114c5868361147e565b95508019841693508086168417925050509392505050565b6000819050919050565b60006115026114fd6114f884610c11565b6114dd565b610c11565b9050919050565b6000819050919050565b61151c836114e7565b61153061152882611509565b84845461148b565b825550505050565b600090565b611545611538565b611550818484611513565b505050565b5b818110156115745761156960008261153d565b600181019050611556565b5050565b601f8211156115b95761158a81611459565b6115938461146e565b810160208510156115a2578190505b6115b66115ae8561146e565b830182611555565b50505b505050565b600082821c905092915050565b60006115dc600019846008026115be565b1980831691505092915050565b60006115f583836115cb565b9150826002028217905092915050565b8181036116135750506116eb565b61161c82611443565b67ffffffffffffffff81111561163557611634610fd7565b5b61163f8254611412565b61164a828285611578565b6000601f8311600181146116795760008415611667578287015490505b61167185826115e9565b8655506116e4565b601f19841661168787611459565b965061169286611459565b60005b828110156116ba57848901548255600182019150600185019450602081019050611695565b868310156116d757848901546116d3601f8916826115cb565b8355505b6001600288020188555050505b5050505050505b565b60006116f882610c11565b91507fffffffffffffffffffffffffffffffffffffffffffffffffffffffffffffffff820361172a5761172961131d565b5b600182019050919050565b7f4e487b7100000000000000000000000000000000000000000000000000000000600052603160045260246000fd5b61176d82610cf0565b67ffffffffffffffff81111561178657611785610fd7565b5b6117908254611412565b61179b828285611578565b600060209050601f8311600181146117ce57600084156117bc578287015190505b6117c685826115e9565b86555061182e565b601f1984166117dc86611459565b60005b82811015611804578489015182556001820191506020850194506020810190506117df565b86831015611821578489015161181d601f8916826115cb565b8355505b6001600288020188555050505b50505050505056fea2646970667358221220f404cf8c527695a150c65feb9e0a0ec63f47c5896aa6136e34786a63b21d42c564736f6c63430008110033",
  "linkReferences": {},
  "deployedLinkReferences": {}
}